{
  "contractName": "Box",
  "abi": [
    {
      "anonymous": false,
      "inputs": [
        {
          "indexed": false,
          "name": "newValue",
          "type": "uint256"
        }
      ],
      "name": "ValueChanged",
      "type": "event"
    },
    {
      "constant": false,
      "inputs": [
        {
          "name": "newValue",
          "type": "uint256"
        }
      ],
      "name": "store",
      "outputs": [],
      "payable": false,
      "stateMutability": "nonpayable",
      "type": "function"
    },
    {
      "constant": true,
      "inputs": [],
      "name": "retrieve",
      "outputs": [
        {
          "name": "",
          "type": "uint256"
        }
      ],
      "payable": false,
      "stateMutability": "view",
      "type": "function"
    }
  ],
  "bytecode": "0x608060405234801561001057600080fd5b5061011d806100206000396000f3fe6080604052600436106043576000357c0100000000000000000000000000000000000000000000000000000000900480632e64cec11460485780636057361d146070575b600080fd5b348015605357600080fd5b50605a60a7565b6040518082815260200191505060405180910390f35b348015607b57600080fd5b5060a560048036036020811015609057600080fd5b810190808035906020019092919050505060b0565b005b60008054905090565b806000819055507f93fe6d397c74fdf1402a8b72e47b68512f0510d7b98a4bc4cbdf6ac7108b3c59816040518082815260200191505060405180910390a15056fea165627a7a7230582048fe0c3855cb95ba1e1fd8ef7d920193a54cd2e77968908c68d16b5e037bf9b30029",
  "source": "// SPDX-License-Identifier: MIT\npragma solidity >=0.4.22 <0.9.0;\n\ncontract Box {\n    uint256 private value;\n\n    event ValueChanged(uint256 newValue);\n\n    function store(uint256 newValue) public {\n        value = newValue;\n        emit ValueChanged(newValue);\n    }\n\n    function retrieve() public view returns (uint256) {\n        return value;\n    }\n}",
  "sourcePath": "/Users/jan/code/cool-projects/learn-openzeppelin/contracts/Box.sol",
  "compiler": {
    "name": "solc",
    "version": "0.5.1+commit.c8a2cb62.Emscripten.clang"
  },
  "schemaVersion": "3.3.4",
  "updatedAt": "2021-04-08T13:26:28.930Z",
  "devdoc": {
    "methods": {}
  },
  "userdoc": {
    "methods": {}
  }
}